:0300000002113EAC
:0C113E00787FE4F6D8FD75813A02118537
:08128700758901C28DC28C22A1
:100EFA00E4F521F522F523F5247F32FE1211EF12D3
:100F0A0012587FD07E071211EF1210008E098F0A35
:100F1A007F647E001211EF1210008E098F0A7F641F
:100F2A007E001211EF1210008E098F0A7F647E0074
:100F3A001211EF1210008E098F0A7F647E001211BF
:100F4A00EF1212871210008E098F0A7F647E001238
:100F5A0011EFD3E50A9414E509648094805058127D
:100F6A0012977F2C7E011211EF120FF97F907E01EA
:100F7A001211EF1212977F2C7E011211EF1211CA71
:100F8A008E218F227F2C7E011211EF120FCD8E231C
:100F9A008F247F2C7E011211EFC3E50A9524E523E5
:100FAA006480F8E509648098400512123C800312B7
:100FBA00124A121297800312127C1210008E098FA5
:030FCA000A808119
:100FCD00E4F525F5261212707FF47E011211EF1251
:100FDD0010008E258F267F647E001211EF1212589D
:0B0FED007F647E001211EFAE25AF26DE
:010FF80022D6
:1011CA00E4F525F5261212647FF47E011211EF125E
:1011DA0010008E258F267F647E001211EF1212589E
:0411EA00AE25AF2659
:0111EE0022DE
:0C125800D2977F327E0012122EC2972225
:0C126400D2977F527E0012122EC29722F9
:0C127000D2977F6E7E0012122EC29722D1
:0D122000010800040B00000000020900643A
:08128F00D291121210C291224B
:10100000E4F527F5287F46FE1211EF12128F30A06B
:10101000FDD28C30A003308DFAC28CE4F534F53368
:101020007532C07531C0FFFE7D207C41120DE37B1F
:10103000007AFC790578471208008F2C8E2B8D2AB8
:101040008C29AF8CEFAD8AFCEC1209AB8F0E8E0DA4
:101050008D0C8C0BAF2CAE2BAD2AAC29AB0EAA0D90
:10106000A90CA80B120800E4FBFAF9784012090950
:101070008F0E8E0D8D0C8C0B1209E48E278F28E5B8
:101080002845277007F5277528FA8013D3E528949B
:10109000C8E5276480948040067527007528C8AE8F
:0310A00027AF284F
:0110A300222A
:0E122E00EF1FAC0670011E4C60030080F3221F
:1011EF007C037DE8120C4EE48F308E2FF52EF52DFB
:1011FF00782D74FF120C90EC4D4E4F60030080F071
:01120F0022BC
:10121000758AF5758CFFD28C308DFDC28CC28D2203
:04129700E4F5A022B8
:0B127C00E508700675080175A09022BF
:070FF900E4F50875A0602279
:0E123C0075A0507FF47E011211EF75A05022B4
:0E124A0075A0A07FF47E011211EF75A0A02206
:10080000EC4D6011E8497017ED33EC3304600DE4F2
:10081000FCFFFEFD22E933E8330470F8020A5012AF
:100820000A1B58046009E4CC2481500628500902B0
:100830000A5A284003020A57C0E0EB4A7044B980C4
:1008400006D0E0FB020A46EF4E701CBD8008EBFFAD
:10085000EAFEE9FD80EBE98DF0A4FEE5F00208E98F
:10086000E9CDF9EAFEEBFFEF89F0A4FCE5F0CE89D3
:10087000F0A42EFFE435F0CD89F0A42DFEE435F090
:100880008067EF4E7005BD80D780C3EF8BF0A4ACBE
:10089000F0EE8BF0A42CFCE435F0F8EF8AF0A42CF9
:1008A000E5F038FCE433CB8DF0A42CFCE5F03BF80C
:1008B000EE8AF0A42CFCE5F038F8E433CF89F0A4FC
:1008C0002CFCE5F038CF3400CE89F0A42FFFE5F002
:1008D0003EFEE433C98DF0A42EFEE5F039CD8AF05A
:1008E000A42FFFE5F03EFEE43DFD33D0E0FB5007D2
:1008F0000BBB000F020A5AEC2CFCEF33FFEE33FE69
:06090000ED33FD020A3296
:10090600020A5AEC5D046005E859047003020A50B5
:10091600120A1B580460F6EC4860F2EC7004FDFE07
:10092600FF22C860DB2481C85009C39860025006C4
:10093600020A579850CAF582E9294B4A7005AB82DC
:10094600020A4675F0007C1A7880C3EF9BEE9AED9A
:1009560099400DC3EF9BFFEE9AFEED99FDE842F03C
:10096600DC23ACF0D0E0FFD0E0FED0E0FDAB82208F
:10097600E7101BEB60BAEC2CFCEF33FFEE33FEED19
:1009860033FD020A32E803F830E705C0F075F000DF
:10099600EF2FFFEE33FEED33FD40B830E7C280AAFD
:1009A60075F020800E75F010800575F0087D007ECC
:1009B600007F003392D530D503120C60EC33401023
:1009C600EF33FFEE33FEED33FDEC33FCD5F0ED22D5
:0E09D600E5F0247EA2D513CC92E7CDCEFF2211
:1009E400EDD2E7CD33EC3392D524814006E4FFFE0B
:1009F400FDFC22FCE4CFCECDCC24E0501174FF806A
:100A0400EDC3CC13CCCD13CDCE13CECF13CF047006
:070A1400F030D5DE020C609A
:100DE3008F308E2F8D2E8C2DE4FFFE7D807C3FABCC
:100DF30030AA2FA92EA82D120B777009AF30AE2F72
:100E0300AD2EAC2D22AF30AE2FAD2EAC2D120A6518
:100E1300FBAF34AE33AD32AC31120A65FFBF01080C
:100E2300E4FFFE7D807C3F22EF64046022EB6404D8
:100E3300601DBB0127E4FFFEFDFCAB34AA33A932DE
:100E4300A831120B7760084006E4FFFEFDFC227414
:100E5300FFF534F533F532F531020EF1E4F535F5EE
:100E630036FFFEFDFCAB30AA2FA92EA82D120B775F
:100E7300504BAF34AE33AD32AC311209E48E358F03
:100E830036AC35AD36EC1209ABC8ECC8C9EDC9CAEE
:100E9300EECACBEFCBAF34AE33AD32AC31120A82F4
:100EA300E4FBFAF9F8120B7770A5AF30AE2FAD2E35
:100EB300AC2D120BF08F308E2F8D2E8C2DAF30AECC
:100EC3002FAD2EAC2D120CE2AB34AA33A932A831CC
:100ED3001208001210DC8F348E338D328C31E536DC
:100EE30030E00B120BF08F348E338D328C31AF34F4
:070EF300AE33AD32AC312239
:100A1B00E9D2E7C933E833F892D5EDD2E7CD33EC21
:070A2B0033FC5002B2D5229A
:100A3200EC30E7100FBF000C0EBE00080DBD000425
:100A42000BEB6014A2D5EB13FCED92E7FD2274FFD1
:100A5200FCFDFEFF22E480F8A2D574FF13FC7D802A
:030A6200E480EF3E
:100A6500ED33EC33601004700FED547F70057402A4
:0A0A750092E0227404220422E4221D
:100A7F00020A50E86480F8E933E83360110460F04B
:100A8F00ED33EC337009E8FCE9FDEAFEEBFF2204DD
:100A9F0060DED3EB9FEA9EE99DE8C2E78CF0C2F7D8
:100AAF0095F0400CE8CCF8E9CDF9EACEFAEBCFFBA4
:100ABF00120A1B85D0F05804700320D5B3E80470D8
:100ACF00075002B2D5020A5A92D5EC0460F7E4CC73
:100ADF00C0E0C398F8603B94186008400DD0E0FB6D
:100AEF00020A32E4FBFAC9FC8028E830E406E4C9C4
:100AFF00FBE4CAFCE830E305E4C9CACBFCE85407C1
:100B0F006010F8C3E913F9EA13FAEB13FBEC13FCCB
:100B1F00D8F130F52FC3E49CFCEF9BFFEE9AFEED6E
:100B2F0099FDD0E0FBEF4E4D4C701222DB03020A11
:100B3F0057EC2CFCEF33FFEE33FEED33FDED30E7DA
:100B4F00EB020A32EF2BFFEE3AFEED39FDD0E0FB60
:100B5F0050130BBB0003020A5AED13FDEE13FEEF09
:080B6F0013FFEC13FC020A3233
:100B770074F8CC6480CCC86480C8F58204604FC325
:100B8700EB9FF5F0EA9E42F0E99D42F0E89C45F0C4
:100B9700603C501DE5825FFFE582D313CB5BCBF44E
:100BA7002B5582FB50280ABA002409B90020088077
:100BB7001DE5825BFBE582D313CF5FCFF4C3132F11
:100BC7005582FF50090EBE00050DBD00010CC3EB99
:100BD7009FF5F0EA9E42F0E99D42F0E89C45F060FF
:090BE70007CC4820E701B3EC2221
:100BF000ED33EC33600A047003BD8004ECB2E7FC13
:010C000022D1
:1010A40033DA929E35B16011377FE5FE39218489A8
:1010B4003AAEC3FF3C1D955B3D6358473E75FDF05A
:1010C4003F3172183F800000C2D5020A5A020A500A
:1010D400BD80FA50F3020A57ED33EC330460F17B20
:1010E4003B7AAA79B8783F120800ED33EC3392D5F5
:1010F400247B5011A2D570DB500BED4480240450A6
:1011040004A2D580CEEFFBEEFAEDF9ECF81209E477
:10111400EFF582F404FC1209B0120A86C082901022
:10112400A47409120C10ED33CC33D0F092D525F011
:0A113400A2D57001C313CC13FD22F5
:100CAE003E9248DA3ECCCCCD3F2AAAAB40000000A3
:100CBE003F8000003F9837F03FB504F33FD744FC28
:100CCE003E3172173EB172173F0515913EDE5BD96C
:100CDE00D2008002C200EDD2E7F8CD33EC330470BF
:100CEE000BBD800592D5020A5A020A5040FBD3145E
:100CFE0060F2F5F07C3FEE7A00C39496C8948B4078
:100D0E00230AC89469C8941A401A0AC89468C894E9
:100D1E001F40110AC8945AC89425400805F07A005D
:100D2E00CDC2E7CDC0F08C378D388E398F3AEA239D
:100D3E0023C0E024BEF582E4340CF583120C7E123F
:100D4E000A86ECC0E0EDC0E0EEC0E0EFC0E0120CB1
:100D5E006EA837A938AA39AB3A120A82D0E0FBD076
:100D6E00E0FAD0E0F9D0E0B2E7F81209098C378D3D
:100D7E00388E398F3A900CAE7403120C01A837A935
:100D8E0038AA39AB3A120800D0E0600F24CAF582B7
:100D9E00E4340CF583120C7E120A868C378D388E55
:100DAE00398F3AD0E0C3947FFDE49400FC1209AB76
:100DBE007B187A727931783F120800A837A938AAC1
:100DCE0039AB3A120A8630000B7BD97A5B79DE7822
:050DDE003E1208002296
:100C0100C0E0EFFBEEFAEDF9ECF8120800D0E0F5E8
:100C1100F0EFFBEEFAEDF9ECF8120C6EA3A3A3A32F
:100C2100E8C0E0E9C0E0EAC0E0EBC0E0C0F01208D3
:100C310000120C7EA3A3A3A3120A86D0F0D0E0FB7E
:0D0C4100D0E0FAD0E0F9D0E0F8D5F0D422F0
:10114A00020EFAE493A3F8E493A34003F68001F2B3
:10115A0008DFF48029E493A3F85407240CC8C333A6
:10116A00C4540F4420C8834004F456800146F6DF75
:10117A00E4800B0102040810204080901220E47ED3
:10118A00019360BCA3FF543F30E509541FFEE4936A
:10119A00A360010ECF54C025E060A840B8E493A331
:1011AA00FAE493A3F8E493A3C8C582C8CAC583CA5C
:1011BA00F0A3C8C582C8CAC583CADFE9DEE780BE14
:01122D0000C0
:100C4E00EF8DF0A4A8F0CF8CF0A428CE8DF0A42EBA
:020C5E00FE2274
:0E0C6000C3E49FFFE49EFEE49DFDE49CFC22A5
:100C6E00E493FC740193FD740293FE740393FF22CC
:100C7E00E493F8740193F9740293FA740393FB22CC
:100C8E007401FF3395E0FEFDFC080808E6CF2FF651
:100C9E0018E6CE3EF618E6CD3DF618E6CC3CF6222A
:00000001FF
